:100000000C9434000C9451000C9451000C94510049
:100010000C9451000C9451000C9451000C9451001C
:100020000C9451000C9451000C9451000C9451000C
:100030000C9451000C9451000C9451000C945100FC
:100040000C9451000C9451000C94CB030C9451006F
:100050000C9451000C9451000C9451000C945100DC
:100060000C9451000C94510011241FBECFEFD8E026
:10007000DEBFCDBF11E0A0E0B1E0E2E3F9E002C0F5
:1000800005900D92A031B107D9F721E0A0E1B1E0D0
:1000900001C01D92A131B207E1F70E944B040C94FC
:1000A00097040C9400002F923F924F925F926F92B0
:1000B0007F928F929F92AF92BF92CF92DF92EF92F8
:1000C000FF920F931F93CF93DF93CDB7DEB768975F
:1000D0000FB6F894DEBF0FBECDBF19012A013B0158
:1000E0004C01A98ABA8ACB8ADC8AED8AFE8A0F8BF8
:1000F000188F28E030E040E050E0BE01675F7F4F9E
:1001000080E090E00E94920328E030E040E050E080
:10011000BE016F5F7F4F88E090E00E949203A98448
:10012000BA84CB84DC84ED84FE840F851889910128
:10013000A201B301C4010E945802A988BA88CB88E1
:10014000DC88ED88FE880F89188D0E943F02A98403
:10015000BA84CB84DC84ED84FE840F8518890E94E8
:100160005802A980BA80CB80DC80ED80FE800F81B0
:1001700018850E943F02A984BA84CB84DC84ED8474
:10018000FE840F8518890E94580268960FB6F8946D
:10019000DEBF0FBECDBFDF91CF911F910F91FF90BA
:1001A000EF90DF90CF90BF90AF909F908F907F9017
:1001B0006F905F904F903F902F900895AF92BF92B5
:1001C000CF92DF92EF92FF920F931F93CF93DF9323
:1001D000CDB7DEB768970FB6F894DEBF0FBECDBFC0
:1001E00068E070E0CE0141960E94250468E070E06E
:1001F000CE0109960E942504A984BA84CB84DC84AC
:10020000ED84FE840F85188929893A894B895C8998
:100210006D897E898F89988D0E9453002989298351
:100220002A892A832B892B832C892C832D892D8342
:100230002E892E832F89822B8F83888D982B9887E8
:1002400068E070E0CE0101960E940B0468960FB63C
:10025000F894DEBF0FBECDBFDF91CF911F910F91FC
:10026000FF90EF90DF90CF90BF90AF900895AF9246
:10027000BF92CF92DF92EF92FF920F931F93CF9393
:10028000DF93CDB7DEB768970FB6F894DEBF0FBE29
:10029000CDBF68E070E0CE0141960E94250468E081
:1002A00070E0CE0109960E942504A984BA84CB840B
:1002B000DC84ED84FE840F85188929893A894B896D
:1002C0005C896D897E8980E090E00E945300F98806
:1002D0000A891B89BC89FD89EE89EF88A88D20E0F9
:1002E00030E040E050E060E070E08E259A27A0E02A
:1002F000F9820A831B83BC83FD83EE831F820E94E5
:100300008B0411F4188602C080E8888768E070E0EA
:10031000CE0101960E940B0468960FB6F894DEBFDA
:100320000FBECDBFDF91CF911F910F91FF90EF9046
:10033000DF90CF90BF90AF900895AF92BF92CF92D1
:10034000DF92EF92FF920F931F93CF93DF93CDB77E
:10035000DEB768970FB6F894DEBF0FBECDBF68E07A
:1003600070E0CE0141960E94250468E070E0CE0165
:1003700009960E942504A984BA84CB84DC84ED8488
:10038000FE840F85188929893A894B895C896D8992
:100390007E898F89988D0E94530029833A834B83ED
:1003A0005C836D837E838F83988768E070E0CE01E5
:1003B00001960E940B0468960FB6F894DEBF0FBE3C
:1003C000CDBFDF91CF911F910F91FF90EF90DF9004
:1003D000CF90BF90AF900895FF920F931F93CF934C
:1003E000DF93CDB7DEB7A0970FB6F894DEBF0FBE90
:1003F000CDBF80E2F82E8E010F5F1F4FF8018F2DC9
:1004000011928A95E9F72FE130E040E050E0B80121
:1004100080E190E00E94920360E270E0C8010E94D7
:100420000B04F8011192FA94E9F720E230E040E081
:1004300050E0B80180E190E00E945C03A0960FB606
:10044000F894DEBF0FBECDBFDF91CF911F910F910A
:10045000FF900895823059F024F4813061F40C94B7
:10046000DE00833031F0843031F40C94EC010C94D4
:1004700037010C949D0180E091E00C943F04AF9211
:10048000BF92CF92DF92EF92FF920F931F932A2594
:100490003B254C255D256E257F25802791271F91C3
:1004A0000F91FF90EF90DF90CF90BF90AF900895A5
:1004B0002F923F924F925F926F927F928F929F9274
:1004C000AF92BF92CF92DF92EF92FF920F931F9362
:1004D000CF93DF9300D000D000D0CDB7DEB7F901C5
:1004E000B42F5D836E83972E882E792E202E312C8B
:1004F000412C512C612C19821A821B821C829F0173
:100500004B2F5D816E81792D882D972DA0E00E9463
:100510008B0409F462C09501A601B701822D912FC9
:100520000E948B0409F459C02A2D217030E040E06C
:1005300050E060E070E080E090E0A0E00E948B047A
:1005400091F03E264F265B262D81622689819E8171
:10055000892789832A8129252A838B8188258B8372
:100560009C8197259C839F014B2F5D816E81792D06
:10057000882D972DA0E00E948B0484F401E00E9456
:100580005404E7EBE227FCE3F327B4EFB42727E4B6
:1005900025272D8322E026272E830EC09F014B2F77
:1005A0005D816E81792D882D972D01E00E94540484
:1005B000F901B42F5D836E83972E882E792E9501D5
:1005C000A601B701822D912F01E00E946F0459010D
:1005D0006A017B01282E192F92CF232D342D452D12
:1005E000562D69817A818B819C8126960FB6F8946D
:1005F000DEBF0FBECDBFDF91CF911F910F91FF9056
:10060000EF90DF90CF90BF90AF909F908F907F90B2
:100610006F905F904F903F902F900895E9EBF0E03E
:1006200080818160808382E18093B800089584E9AD
:100630008093BC008091BC0084FDFCCF089594EAB7
:100640009093BC009091BC0097FFFCCF9091B900B3
:10065000987F983021F0903111F081E008958093D7
:10066000BB0084E88093BC008091BC0087FFFCCF76
:100670008091B900887F883111F0803471F780E073
:1006800008958093BB0084E88093BC008091BC00F7
:1006900087FFFCCF9091B900987F81E0983209F4F0
:1006A00080E0089584E88093BC008091BC0087FFBF
:1006B000FCCF8091BB0008958F929F92AF92BF9222
:1006C000CF92DF92EF92FF92CF93DF93D82FC92F73
:1006D0007B0149015A0180EA0E941F038D2F0E946D
:1006E00041038C2F0E944103E701C12CD12C7601DC
:1006F0008C149D04AE04BF0449F089910E9441030B
:100700008FEFC81AD80AE80AF80AF2CFDF91CF9122
:10071000FF90EF90DF90CF90BF90AF909F908F9021
:100720000C9417038F929F92AF92BF92CF92DF9259
:10073000EF92FF92CF93DF93D82FC92F7B0149010E
:100740005A0180EA0E941F038D2F0E9441038C2FC3
:100750000E94410381EA0E941F03E701C12CD12CB2
:1007600076018C149D04AE04BF0449F00E9452032C
:1007700089938FEFC81AD80AE80AF80AF2CFDF91F6
:10078000CF91FF90EF90DF90CF90BF90AF909F9070
:100790008F900C9417031F920F920FB60F92112493
:1007A0008F9381E0809310018F910F900FBE0F9077
:1007B0001F9018951092C50085E08093C40088E9C9
:1007C0008093C10086E08093C20078940895909150
:1007D000C00095FFFCCF8093C60080E090E00895B4
:1007E000F89480911001811108C083B7816083BFA4
:1007F0007894889583B78E7F83BFF8948091100199
:10080000882339F0109210018091C600789490E00E
:1008100008957894E5CFEF92FF920F931F93CF93B3
:10082000DF938C017B01EC01CE01801B910B8E15B7
:100830009F0524F489910E94E703F6CFDF91CF91C1
:100840001F910F91FF90EF900895EF92FF920F93F9
:100850001F93CF93DF938C017B01EC01CE01801BB2
:10086000910B8E159F0524F40E94F0038993F6CF17
:10087000DF91CF911F910F91FF90EF900895CF934B
:10088000DF93EC018991882319F00E94E703FACFE6
:10089000DF91CF9108950E94DA030E940E030E9417
:1008A000F0030E942A02FBCF0F93083090F0982F9C
:1008B000872F762F652F542F432F322F2227085052
:1008C000F4CF220F331F441F551F661F771F881F49
:1008D000991F0A95B2F70F91089597FB10F8169497
:1008E00000080F93083098F00850232F342F452F1D
:1008F000562F672F782F892F902DF4CF0594979539
:1009000087957795679557954795379527950A95D4
:10091000AAF70F9108950024A7FD00942A17300527
:100920004005500560057005800590050895F89410
:02093000FFCFF7
:10093200556E6B6E6F776E20636F6D6D616E6400C6
:00000001FF
